:1000000000308A006E2800000A108A100A11820748
:100010003F3406345B344F3466346D347D340734FA
:100020007F3467342708F801260203181A282608A7
:10003000F7002628F7010830A800A60DF70D2708BD
:1000400077020318F700F80DA80B1D2808002630CA
:1000500084008313000803193B280130F800F701DE
:10006000F70B3028F80B2F284A30F700F70B36280B
:100070003928800B2D2808000130A200F430A1009F
:10008000A108031D4628A20803196B282008A60012
:100090000A30A70012207808A5002008A6000A3020
:1000A000A70012207708A40024080420F800860086
:1000B00007140130A6002720071025080420F800A7
:1000C000860087140130A600272087102108031915
:1000D000A203A10340288A110A12912803081F399C
:1000E0008300FF30A300831603170908C039890075
:1000F00003131F129F120030031788008312870119
:10010000880189018313003083160313860087005A
:100110008312A300A001A0012008633C031C9328C4
:0A0120003C28A00A8C288B286300FD
:04400E00E12CFF3F63
:00000001FF
;PIC16F887
;CRC=D069  CREATED="01-feb.-25 09:52"
